:060000000A128A1110280B
:10000800FE00030E83120313A9000A08AA007F0842
:10001800AB000A128A116E2D0A128A111328831353
:100028005E30FD000A30FE008E30FF005230840042
:100038000A128A15C5220A128A11C501C601C7010A
:10004800C801C901CA01CB01CC01CD01CE01CF0144
:10005800D001D10183010A128A1132280A128A15A5
:1000680087270A128A110A128A1568220A128A1127
:10007800D03083120313BD000030BE000A128A1567
:1000880084220A128A11003083120313BD00BE00B5
:100098000A128A1584220A128A118312031353083A
:1000A800B6005208B5000A128A158C250A128A1160
:1000B800831203133608BE003508BD000A128A15DC
:1000C80084220A128A110A128A1571220A128A11C6
:1000D800023083120313C4000430C300B930C200D5
:1000E800C20B7428C30B7428C40B74287B280A120B
:1000F8008A1568220A128A11D03083120313BD00B0
:100108000030BE000A128A1584220A128A110130B0
:1001180083120313BD000030BE000A128A15842220
:100128000A128A11831203135508B6005408B50041
:100138000A128A158C250A128A11831203133608AB
:10014800BE003508BD000A128A1584220A128A11D7
:100158000A128A1571220A128A11023083120313B5
:10016800C4000430C300B930C200C20BB928C30BA5
:10017800B928C40BB928C0280A128A1568220A129D
:100188008A11D03083120313BD000030BE000A125A
:100198008A1584220A128A11023083120313BD00C1
:1001A8000030BE000A128A1584220A128A118312AC
:1001B80003135708B6005608B5000A128A158C258D
:1001C8000A128A11831203133608BE003508BD00CF
:1001D8000A128A1584220A128A110A128A157122B1
:1001E8000A128A11023083120313C4000430C300B8
:1001F800B930C200C20BFE28C30BFE28C40BFE2870
:1002080005290A128A1568220A128A11D030831227
:100218000313BD000030BE000A128A1584220A1298
:100228008A11043083120313BD000030BE000A1285
:100238008A1584220A128A11831203135908B600F8
:100248005808B5000A128A158C250A128A118312D9
:1002580003133608BE003508BD000A128A15842229
:100268000A128A110A128A1571220A128A11023098
:1002780083120313C4000430C300B930C200C20B98
:100288004329C30B4329C40B43294A290A128A1557
:1002980068220A128A11D03083120313BD0000307D
:1002A800BE000A128A1584220A128A1105308312A6
:1002B8000313BD000030BE000A128A1584220A12F8
:1002C8008A11831203135B08B6005A08B5000A1294
:1002D8008A158C250A128A11831203133608BE0068
:1002E8003508BD000A128A1584220A128A110A12D8
:1002F8008A1571220A128A110A128A1568220A12AC
:100308008A11D03083120313BD000030BE000A12D8
:100318008A1584220A128A11063083120313BD003B
:100328000030BE000A128A1584220A128A1183122A
:1003380003135D08B6005C08B5000A128A158C25FF
:100348000A128A11831203133608BE003508BD004D
:100358000A128A1584220A128A110A128A1571222F
:100368000A128A11023083120313C4000430C30036
:10037800B930C200C20BBE29C30BBE29C40BBE29AB
:10038800C5290A128A1568220A128A115030831266
:100398000313BD000030BE000A128A1584220A1217
:1003A8008A11003083120313BD00BE000A128A1599
:1003B80084220A128A110A128A1571220A128A11D3
:1003C800033083120313C4000830C3007630C20020
:1003D800C20BEC29C30BEC29C40BEC2900000A1250
:1003E8008A1568220A128A11513083120313BD003C
:1003F8000030BE000A128A1584220A128A110030BF
:1004080083120313AC00AD000A128A15A1230A1245
:100418008A11831203132C08C5000A128A15712247
:100428000A128A11033083120313C4000830C30070
:100438007630C200C20B1E2AC30B1E2AC40B1E2A0A
:1004480000000A128A1568220A128A11D030831213
:100458000313BD000030BE000A128A1584220A1256
:100468008A11003083120313BD00BE000A128A15D8
:1004780084220A128A110A128A155F220A128A1124
:10048800D13083120313BD000030BE000A128A1552
:1004980084220A128A11003083120313AC00AD00C3
:1004A8000A128A15A1230A128A11831203132D082E
:1004B800B3002C08B2000A128A1578230A128A118E
:1004C800831203133308D3003208D2000A128A15A4
:1004D80071220A128A110A128A1568220A128A11CE
:1004E800D03083120313BD000030BE000A128A15F3
:1004F80084220A128A11013083120313BD000030CE
:10050800BE000A128A1584220A128A110A128A1552
:100518005F220A128A11D13083120313BD00003002
:10052800BE000A128A1584220A128A110030831228
:100538000313AC00AD000A128A15A1230A128A110E
:10054800831203132D08B3002C08B2000A128A156F
:1005580078230A128A11831203133308D50032084C
:10056800D4000A128A1571220A128A110A128A15EF
:1005780068220A128A11D03083120313BD0000309A
:10058800BE000A128A1584220A128A1102308312C6
:100598000313BD000030BE000A128A1584220A1215
:1005A8008A110A128A155F220A128A11D13083121F
:1005B8000313BD000030BE000A128A1584220A12F5
:1005C8008A11003083120313AC00AD000A128A1599
:1005D800A1230A128A11831203132D08B3002C08D1
:1005E800B2000A128A1578230A128A118312031399
:1005F8003308D7003208D6000A128A1571220A1267
:100608008A110A128A1568220A128A11D0308312B6
:100618000313BD000030BE000A128A1584220A1294
:100628008A11043083120313BD000030BE000A1281
:100638008A1584220A128A110A128A155F220A125E
:100648008A11D13083120313BD000030BE000A1294
:100658008A1584220A128A11003083120313AC000F
:10066800AD000A128A15A1230A128A1183120313F4
:100678002D08B3002C08B2000A128A1578230A1232
:100688008A11831203133308D9003208D8000A12DA
:100698008A1571220A128A110A128A1568220A1208
:1006A8008A11D03083120313BD000030BE000A1235
:1006B8008A1584220A128A11053083120313BD0099
:1006C8000030BE000A128A1584220A128A110A1200
:1006D8008A155F220A128A11D13083120313BD00D2
:1006E8000030BE000A128A1584220A128A110030CC
:1006F80083120313AC00AD000A128A15A1230A1253
:100708008A11831203132D08B3002C08B2000A12B1
:100718008A1578230A128A11831203133308DB001F
:100728003208DA000A128A1571220A128A110A128C
:100738008A1568220A128A11D03083120313BD0069
:100748000030BE000A128A1584220A128A11063065
:1007580083120313BD000030BE000A128A158422DA
:100768000A128A110A128A155F220A128A11D130D6
:1007780083120313BD000030BE000A128A158422BA
:100788000A128A11003083120313AC00AD000A125A
:100798008A15A1230A128A11831203132D08B300A4
:1007A8002C08B2000A128A1578230A128A118312B9
:1007B80003133308DB003208DA000A128A157122A3
:1007C8000A128A114E3083120313B50052080A1216
:1007D8008A111A270A128A114A3083120313B500A4
:1007E80054080A128A111A270A128A1146308312EB
:1007F8000313B50045080A128A111A270A128A112A
:100808000A3083120313AC000030AD005708AF0064
:100818005608AE000A128A1531250A128A11831267
:1008280003132C0883160313A0000A308312031342
:10083800AC000030AD005708AF005608AE000A12F1
:100848008A151E270A128A11831203132C0883168D
:100858000313A1000A3083120313AC000030AD006B
:100868005908AF005808AE000A128A1531250A1235
:100878008A11831203132C0883160313A2000A306B
:1008880083120313AC000030AD005908AF005808BC
:10089800AE000A128A151E270A128A118312031340
:1008A8002C0883160313A3000A3083120313AC0029
:1008B8000030AD005B08AF005A08AE000A128A1576
:1008C80031250A128A11831203132C088316031385
:1008D800A4000A3083120313AC000030AD005B089B
:1008E800AF005A08AE000A128A151E270A128A118A
:1008F800831203132C0883160313A5000A308312EE
:100908000313AC000030AD005D08AF005C08AE001A
:100918000A128A1531250A128A11831203132C0828
:1009280083160313A6000A3083120313AC000030A9
:10093800AD005D08AF005C08AE000A128A151E27DC
:100948000A128A11831203132C0883160313A700B3
:100958000A128A15B4220A128A1183120313B001EB
:10096800B00A01300A128A158C240A128A1108303A
:1009780083120313B1008030B2000A128A1546248C
:100988000A128A11831603132108303E0A128A15A7
:10099800D3230A128A11831603132008303E0A1241
:1009A8008A15D3230A128A113A300A128A15D323D8
:1009B8000A128A114A3083120313B1000030B200C0
:1009C8000A128A1546240A128A113A300A128A151E
:1009D800D3230A128A114E3083120313B100003058
:1009E800B2000A128A1546240A128A1183120313C6
:1009F800B001B00A02300A128A158C240A128A1130
:100A0800463083120313B1000030B2000A128A156F
:100A180046240A128A110D3083120313B100803064
:100A2800B2000A128A1546240A128A118316031381
:100A38002308303E0A128A15D3230A128A11831614
:100A480003132208303E0A128A15D3230A128A1188
:100A58003A300A128A15D3230A128A11831603130D
:100A68002508303E0A128A15D3230A128A118316E2
:100A780003132408303E0A128A15D3230A128A1156
:100A88003A300A128A15D3230A128A1183160313DD
:100A98002708303E0A128A15D3230A128A118316B0
:100AA80003132608303E0A128A15D3230A128A1124
:100AB800063083120313C4001330C300AD30C200E4
:100AC800C20B642DC30B642DC40B642DC5290A12F7
:100AD8008A1110280B1C712D722D0F2F0618752DD9
:100AE800762DCD2D0130D6070318D70A0030D70749
:100AF8005708803AFF0080307F02031D852D18308B
:100B08005602031C882D892D8D2D83120313D601BF
:100B1800D7010A128A154D220A128A11D030FB0019
:100B28000030FC000A128A157A220A128A11023051
:100B3800FB000030FC000A128A157A220A128A1178
:100B4800831203135708FA005608F9000A128A118B
:100B5800A1270A128A117A08FC007908FB000A12F8
:100B68008A157A220A128A110A128A1556220A123C
:100B78008A11023083120313A8000430A700B93089
:100B8800A600A60BC52DA70BC52DA80BC52DCC2DD2
:100B9800D82D8618D02DD12DD82DFF30D607031883
:100BA800D70AFF30D7078D2D831203130619DD2DC1
:100BB800DE2D352E0130D4070318D50A0030D507AD
:100BC8005508803AFF0080307F02031DED2D3C3030
:100BD8005402031CF02DF12DF52D83120313D401BB
:100BE800D5010A128A154D220A128A11D030FB004B
:100BF8000030FC000A128A157A220A128A11013082
:100C0800FB000030FC000A128A157A220A128A11A7
:100C1800831203135508FA005408F9000A128A11BE
:100C2800A1270A128A117A08FC007908FB000A1227
:100C38008A157A220A128A110A128A1556220A126B
:100C48008A11023083120313A8000430A700B930B8
:100C5800A600A60B2D2EA70B2D2EA80B2D2E342E5D
:100C6800402E8619382E392E402EFF30D40703180F
:100C7800D50AFF30D507F52D83120313061A452E22
:100C8800462E9F2E0130D8070318D90A0030D907FD
:100C98005908803AFF0080307F02031D552E20300E
:100CA8005802031C582E592E5F2E0130831203134D
:100CB800D8000030D9000A128A154D220A128A116A
:100CC800D030FB000030FC000A128A157A220A1282
:100CD8008A110430FB000030FC000A128A157A22BF
:100CE8000A128A11831203135908FA005808F900E6
:100CF8000A128A11A1270A128A117A08FC007908B7
:100D0800FB000A128A157A220A128A110A128A1517
:100D180056220A128A11023083120313A8000430E3
:100D2800A700B930A600A60B972EA70B972EA80BE5
:100D3800972E9E2EB72E861AA22EA32EB72EFF30E0
:100D4800D8070318D90AFF30D9075908803AFF0095
:100D580080307F02031DB22E013058020318B52ED1
:100D6800B62E5F2E592E83120313061BBC2EBD2EE2
:100D7800032F0130DC070318DD0A0030DD070A12F3
:100D88008A154D220A128A11D030FB000030FC006F
:100D98000A128A157A220A128A110630FB000030DC
:100DA800FC000A128A157A220A128A118312031386
:100DB8005D08FA005C08F9000A128A11A1270A12D4
:100DC8008A117A08FC007908FB000A128A157A222F
:100DD8000A128A110A128A1556220A128A11023038
:100DE80083120313A8000430A700B930A600A60B8D
:100DF800FB2EA70BFB2EA80BFB2E022F0E2F861BFC
:100E0800062F072F0E2FFF30DC070318DD0AFF30EF
:100E1800DD07C32E0B10831203132B08FF002A08CB
:100E28008A00290E8300FE0E7E0E0900831203132A
:100E3800B9003908BE00BB013E08031D242F252F29
:100E4800612F35088400303083138000350A840010
:100E58008001A02F3B083507B600360884000A3009
:100E6800AC000030AD003E08B700B8013708AE004E
:100E78003808AF000A128A1531250A128A1183121E
:100E880003132C08303E831380000130B600360867
:100E9800BB070A30AC000030AD003E08B600B70111
:100EA8003608AE003708AF000A128A151E270A1244
:100EB8008A11831203132C08BE003E08031D652FF8
:100EC800662F2E2F3B083507B6003608840083139B
:100ED8008001BC013B08FF3EBD00962F3C0835074A
:100EE800B600360884000008BA003D083507B60089
:100EF800360884000008B7003C083507B8003808F1
:100F08008400370880003D083507B600360884009D
:100F18003A0880000130B6003608BC07FF30B6003A
:100F28003608BD073C08803AB6003D08803AB6024C
:100F3800031C9F2FA02F722F080083120313A201F6
:100F4800A3010130A4000030A500EA2F0A30F00008
:100F58000030F1007A08F3007908F2000A128A15C5
:100F6800D8240A128A11710883120313A100700889
:100F7800A0002108F1002008F0002508F30024084B
:100F8800F2000A128A152C230A128A117008831299
:100F98000313A2070318A30A7108A3070430031058
:100FA800A40DA50DFF3E031DD32F0A30F00000301D
:100FB800F1007A08F3007908F2000A128A154F2620
:100FC8000A128A117108FA007008F9007A08803A42
:100FD800FF0080307F02031DF32F013079020318D0
:100FE800F62FF72FAA2F831203132308FA002208DB
:040FF800F9000800F4
:10100000FF1B0A2883137F1883170008840A03191B
:10101000FF0A080008308A000408840A82070034A6
:1010200044346134743465343A34203400345334F5
:1010300031343A3420340034203420342034003425
:10149A000A128A159A220A128A158316031311143C
:1014AA0008000A128A159A220A128A158316031349
:1014BA00111508000A128A15A7220A128A1583161C
:1014CA000313911408000A128A15A7220A128A1510
:1014DA0083160313111408000A128A15A7220A1286
:1014EA008A1583160313111508000A128A159A22FF
:1014FA000A128A157B0883120313930008000A1242
:10150A008A15A7220A128A15831203133D0893002B
:10151A000800323400343B340034103400340834C8
:10152A0000340834003417340034831603131419B2
:10153A009F2AA02A9A2A11081F39031DA52AA62A1A
:10154A009A2A0800831603131419AC2AAD2AA72A6B
:10155A0011081F39031DB22AB32AA72A080000302E
:10156A000A128A15D4220A128A1501300A128A1519
:10157A00D4220A128A1508007E088A007F0882008F
:10158A000A128A15C1220A128A158000840A0408DE
:10159A007D0603190034FF0A0319FE0AC52A8312BD
:1015AA000313AF0008112F080A128A150C230A1216
:1015BA008A158312031388150B3083120313AE00A6
:1015CA006130AD00AD0BE72AAE0BE72AEC2A831295
:1015DA0003138811080083120313AC002C08831626
:1015EA0003138600831203132C0883160313950032
:1015FA00831203132C088316031396008312031312
:10160A0086018316031381138B150B1008008312AE
:10161A000313AC002C1C122B132B152B0816162B9C
:10162A000812AC1C192B1A2B1C2B88161D2B88127E
:10163A002C1D202B212B232B0817242B0813AC1D20
:10164A00272B282B2A2B88172B2B88130800F40109
:10165A00F501701C312B322B382B7208F407031852
:10166A00F50A7308F50701300310F20DF30DFF3E7A
:10167A00031D392B01300310F10CF00CFF3E031D42
:10168A00402B70087104031D4B2B4C2B2E2B750815
:10169A00F1007408F000080083120313B001B101CD
:1016AA002C1C582B592B5F2B2E08B0070318B10A94
:1016BA002F08B10701300310AE0DAF0DFF3E031D19
:1016CA00602B01300310AD0CAC0CFF3E031D672BE1
:1016DA002C082D04031D722B732B552B3108AD00DA
:1016EA003008AC0008000F30831203133205B4002F
:1016FA0000303305B500320E0F39AC00330EF03925
:10170A00AC04330E0F39AD00F030AD1D0030AD041E
:10171A000A30AE000030AF000A128A1551230A12AD
:10172A008A158312031334082C07B20035080318EC
:10173A00350A2D07B30008000A128A15A7220A12D1
:10174A008A158316031391150A128A15A7220A12FB
:10175A008A15831203131308AE00AF012E08B000D6
:10176A002F08B1000A128A15A7220A128A158312B3
:10177A0003132C032D04031DC32BC42BC82B831660
:10178A0003139112CB2B831603139116111683128E
:10179A0003133108AD003008AC00080083120313AC
:1017AA00B00030080F39AE003008F039AF00081524
:1017BA002F08AD0004300310AD0CFF3E031DE02BD3
:1017CA002D080A128A150C230A128A15831203138A
:1017DA008815193083120313AD00AD0BF22BF52BCC
:1017EA008312031388112E080A128A150C230A126F
:1017FA008A15831203138815193083120313AD0057
:10180A00AD0B052C082C831203138811080028300D
:10181A008312031394008316031391018312031393
:10182A003A08BE003B08BF003C08C0003D08C100A2
:10183A0002300310BE0DBF0DC00DC10DFF3E031DCA
:10184A001E2C4108AF004008AE003F08AD003E081C
:10185A00AC000030B3007A30B2001230B100003070
:10186A00B0000A128A15B6260A128A1583120313C1
:10187A002C08FF3E8316031393009401871507165D
:10188A00080083120313B601B7016F2C360831071B
:10189A00B4003208B3000318B30AB61F552CB303B9
:1018AA00831203133308B5003508FF003408840097
:1018BA000A128A1500200A128A150A128A15D323D7
:1018CA000A128A15013083120313B6070318B70ADE
:1018DA000030B70736083107B4003208B3000318DE
:1018EA00B30AB61F792CB303831203133308B50066
:1018FA003508FF00340884000A128A1500200A12EB
:10190A008A15003A031D8A2C8B2C4B2C0800831253
:10191A000313B2003203031D932C942CB32C30080A
:10192A007F3EB5003508B10004300310B10CFF3E0C
:10193A00031D9A2C3108B30035080F39B400330857
:10194A000A128A15D4220A128A158312031334083A
:10195A000A128A15D4220A128A15D72C02303206A4
:10196A00031DB82CB92CD72C3008BF3EB50035085A
:10197A00B10004300310B10CFF3E031DBF2C310827
:10198A00B30035080F39B40033080A128A15D42275
:10199A000A128A158312031334080A128A15D422EA
:1019AA000A128A150800F601F31FDC2CDD2CE42C40
:1019BA00F209F309F20A0319F30AF601F60AF11F0A
:1019CA00E72CE82CED2CF009F109F00A0319F10AC9
:1019DA00700871040319F22CF32C222DF501F50A73
:1019EA00012D01300310F00DF10DFF3E031DF72C00
:1019FA000130F4007408F507F11F042D052DF62CAB
:101A0A0071087302031D0B2D70087202031C0E2D40
:101A1A000F2D152D7008F2027108031CF303F3024F
:101A2A0001300310F10CF00CFF3E031D162D01309E
:101A3A00F502031D212D222D052D76080319262DC9
:101A4A00272D2C2DF209F309F20A0319F30A730858
:101A5A00F1007208F000080083120313B201AF1FED
:101A6A00372D382D3F2DAE09AF09AE0A0319AF0A3B
:101A7A00B201B20AAD1F422D432D482DAC09AD0962
:101A8A00AC0A0319AD0A2C082D0403194D2D4E2D4D
:101A9A007D2DB101B10A5C2D01300310AC0DAD0DE5
:101AAA00FF3E031D522D0130B0003008B107AD1FB3
:101ABA005F2D602D512D2D082F02031D662D2C0838
:101ACA002E02031C692D6A2D702D2C08AE022D08DA
:101ADA00031CAF03AF0201300310AD0CAC0CFF3E88
:101AEA00031D712D0130B102031D7C2D7D2D602D4A
:101AFA0032080319812D822D872DAE09AF09AE0A4E
:101B0A000319AF0A2F08AD002E08AC000800831293
:101B1A000313B901BA010130BB000030BC00D92D52
:101B2A000A3083120313AC000030AD003608AF0050
:101B3A003508AE000A128A1531250A128A1583124F
:101B4A0003132D08B8002C08B7003808AD00370871
:101B5A00AC003C08AF003B08AE000A128A155123BC
:101B6A000A128A15831203132C08B9070318BA0A32
:101B7A002D08BA0704300310BB0DBC0DFF3E031D30
:101B8A00C02D0A30AC000030AD003608AF00350871
:101B9A00AE000A128A151E270A128A158312031327
:101BAA002D08B6002C08B5003608803AFF008030B0
:101BBA007F02031DE22D013035020318E52DE62DC3
:101BCA00952D831203133A08B6003908B5000800A8
:101BDA0000300A128A150C230A128A15343083122D
:101BEA000313B100F130B000B00BF92DB10BF92D90
:101BFA0003300A128A15D4220A128A150D3083126A
:101C0A000313B100FB30B000B00B092EB10B092E43
:101C1A0003300A128A15D4220A128A151D30831239
:101C2A000313B1009030B000B00B192EB10B192E6E
:101C3A00000003300A128A15D4220A128A150230C9
:101C4A000A128A15D4220A128A1502300A128A1531
:101C5A00D4220A128A1508300A128A15D4220A12C4
:101C6A008A1500300A128A15D4220A128A150C30F3
:101C7A000A128A15D4220A128A1500300A128A1503
:101C8A00D4220A128A1506300A128A15D4220A1296
:101C9A008A150800F601F11F532E542E5B2EF00907
:101CAA00F109F00A0319F10AF601F60AF31F5E2E8A
:101CBA005F2E682EF209F309F20A0319F30A0130BA
:101CCA00F4007408F606F701F801700871040319A4
:101CDA006F2E702EA72EF501F50A7E2E0130031005
:101CEA00F00DF10DFF3E031D742E0130F40074084F
:101CFA00F507F11F812E822E732E01300310F70D86
:101D0A00F80DFF3E031D832E71087302031D8F2EEB
:101D1A0070087202031C922E932E9A2E7008F202F9
:101D2A007108031CF303F302771401300310F10C5A
:101D3A00F00CFF3E031D9B2E0130F502031DA62E5B
:101D4A00A72E822E76080319AB2EAC2EB12EF709D8
:101D5A00F809F70A0319F80A7808F1007708F00079
:101D6A000800003083120313B8000030B7000030B7
:101D7A00B6000030B5002F082E042D042C040319D8
:101D8A00C72EC82E152FB901B90AD82E0130B400B2
:101D9A000310AC0DAD0DAE0DAF0DB40BCD2E013051
:101DAA00B4003408B907AF1FDB2EDC2ECB2E01306E
:101DBA00B4000310B50DB60DB70DB80DB40BDE2E79
:101DCA002F083302031DF32E2E083202031DF32EB1
:101DDA002D083102031DF32E2C083002031CF62EA7
:101DEA00F72E062F2C08B0022D08031C2D0FB10266
:101DFA002E08031C2E0FB2022F08031C2F0FB3024A
:101E0A00351401300310AF0CAE0CAD0CAC0CFF3E18
:101E1A00031D072F0130B902031D142F152FDC2EC5
:101E2A003808AF003708AE003608AD003508AC00F8
:101E3A00080083120313B201AD1F242F252F2C2F64
:101E4A00AC09AD09AC0A0319AD0AB201B20AAF1F57
:101E5A002F2F302F392FAE09AF09AE0A0319AF0A57
:101E6A000130B0003008B206B301B4012C082D04C9
:101E7A000319402F412F782FB101B10A4F2F01309A
:101E8A000310AC0DAD0DFF3E031D452F0130B00010
:101E9A003008B107AD1F522F532F442F01300310C2
:101EAA00B30DB40DFF3E031D542F2D082F02031D41
:101EBA00602F2C082E02031C632F642F6B2F2C0813
:101ECA00AE022D08031CAF03AF0233140130031016
:101EDA00AD0CAC0CFF3E031D6C2F0130B102031D8B
:101EEA00772F782F532F320803197C2F7D2F822FBB
:101EFA00B309B409B30A0319B40A3408AD003308A4
:101F0A00AC000800831603130F178F160F160F1451
:101F1A008316031788018901831603138501831227
:101F2A0003138501FF300A128A15F0220A128A1554
:101F3A0083160313880183120313860188010B1782
:101F4A008B170030BD000130BC008630BB00A030CA
:101F5A00BA000A128A150C240A128A150A128A155C
:101F6A00ED250A128A150A128A15B4220A128A154E
:101F7A0083120313B001B00A01300A128A158C24A5
:101F8A000A128A15083083120313B1008030B20096
:101F9A000A128A1546240A128A153A300A128A1532
:101FAA00D3230A128A153A300A128A15D3230A123F
:101FBA008A1583120313B001B00A02300A128A1575
:101FCA008C240A128A15013083120313B10080305F
:101FDA00B2000A128A1546240A128A153A300A12DF
:101FEA008A15D3230A128A153A300A128A15D3237C
:061FFA000A128A1508001E
:08400000FF3FFF3FFF3FFF3FC0
:04400E00D420FF3F7C
:00000001FF
