:060000000A128A110C280F
:10000800FE00030EF6000A08F7000A128A113128CA
:100018000A128A110F280A128A1198210A128A11C3
:10002800A9000A128A1199210A128A11AA000A1231
:100038008A119A210A128A11AB000A128A119B218D
:100048000A128A11AC00AD01AE01F801F901FA01FA
:10005800FB0183010A128A11EC28831203138C1DF9
:100068003628372887281412141B3B283C28402898
:10007800941F3F28402845281308FB0014139413A5
:10008800141683160313941A4A284B286528141942
:100098004E284F286528831203131308FB008C1180
:1000A800141683160313141C5A285B285528831228
:1000B800031313088800A630F500F50B612800002B
:1000C8008428941A682869288428141D6C286D28A7
:1000D8008428831203131308FB00831603131410D8
:1000E80079088312031393001416A630F500F50B54
:1000F8007B280000831603131418832884287E287D
:10010800831203138C110C1F8A288B28A8280A1223
:100118008A1181210A128A1170087104031D952819
:1001280096289E280A128A118E210A128A117008AE
:10013800F900A5280A128A118E210A128A1170085C
:10014800F800831203130C1377088A00760E8300D5
:10015800FE0E7E0E090083120313A5009F18B52812
:10016800B628EB280130AD070318AE0A0030AE07F9
:100178002E08803AA2002108803A2202031DC628D0
:1001880020082D02031CC928CA28CE28831203136D
:10019800AD01AE01831203132D08A2002207250723
:1001A800A3002308840083130008A400A40DA40D51
:1001B8001F082406C33924069F0020308312031326
:1001C800A200A20BE5280000831203139F14080065
:1001D8000A128A1143210A128A112030831203134A
:1001E800A600A60BF5280000831203139F148312A0
:1001F80003138609063083120313A8001330A700DF
:10020800AD30A600A60B0629A70B0629A80B0629C0
:10021800023083120313A0000030A10029300A1213
:100228008A11AF200A128A11FB280A128A110C2897
:10023800831203131F083F3940389F0083160313A6
:100248001F129F12831203132008A200A20DA20DF1
:100258001F082206C33922069F00831603139F1323
:100268000F3083120313A200A20B38293B298312F3
:1002780003131F140C13831603130C170800033001
:100288008316031788008901003083120313A00026
:10029800A1000A128A111C210A128A11831603135B
:1002A8000F178F160F160F14860188018312031378
:1002B8008601880150300A128A1165210A128A11B2
:1002C800080083120313A000200883160313930069
:1002D800363083120313940080308316031394007E
:1002E80001309100871507168B170B17831203131C
:1002F8008C11831603138C150800831203131F0C2B
:10030800F200720C0F39F300F4017308F00074085E
:10031800F1000800831203131E08F200F3017208AB
:10032800F0007308F1000800003400340134003490
:08400000FF3FFF3FFF3FFF3FC0
:04400E00D420FF3F7C
:00000001FF
